:1000000000300020A9F1000085DF000081DF000042
:1000100081DF000081DF000081DF000081DF000060
:1000200081DF000081DF000081DF000081DF000050
:1000300081DF000081DF000021350000BD4F00009E
:1000400059DF000081DF000081DF000081DF000058
:1000500081DF000081DF000081DF000081DF000020
:10006000D1E0000081DF000081DF0000493A00009C
:1000700095EF000081DF000081DF000081DF0000DC
:1000800081DF000081DF000081DF000081DF0000F0
:1000900081DF000081DF000081DF000081DF0000E0
:1000A00081DF000081DF000081DF000081DF0000D0
:1000B00081DF000081DF000081DF000081DF0000C0
:1004100010B5064C2378002B07D1054B002B02D0DA
:10042000044800E000BF0123237010BD80F0FF1FCF
:1004300000000000448B0100044B10B5002B03D0DA
:100440000349044800E000BF10BDC04600000000A2
:1004500084F0FF1F448B0100164B002B00D1144B7E
:100460009D46402292029A1A924600218B460F46E0
:100470001348144A121A14F03FFA0F4B002B00D005
:1004800098470E4B002B00D0984700200021040015
:100490000D000D48002802D00C4800E000BF14F009
:1004A00007FA2000290013F0FDFA14F0EBF9C0461A
:1004B00000000800003000200000000000000000E4
:1004C00080F0FF1FE8210020000000000000000075
:1004D00002780B78002A03D0013001319A42F7D01C
:1004E000D01A70470023C25C0133002AFBD1581E8A
:1004F00070470000002243088B4274D303098B42EB
:100500005FD3030A8B4244D3030B8B4228D3030CE3
:100510008B420DD3FF22090212BA030C8B4202D385
:100520001212090265D0030B8B4219D300E0090AAD
:10053000C30B8B4201D3CB03C01A5241830B8B42B6
:1005400001D38B03C01A5241430B8B4201D34B039F
:10055000C01A5241030B8B4201D30B03C01A524104
:10056000C30A8B4201D3CB02C01A5241830A8B4289
:1005700001D38B02C01A5241430A8B4201D34B0272
:10058000C01A5241030A8B4201D30B02C01A5241D6
:10059000CDD2C3098B4201D3CB01C01A524183098A
:1005A0008B4201D38B01C01A524143098B4201D3C4
:1005B0004B01C01A524103098B4201D30B01C01AEF
:1005C0005241C3088B4201D3CB00C01A5241830869
:1005D0008B4201D38B00C01A524143088B4201D396
:1005E0004B00C01A5241411A00D2014652411046F6
:1005F0007047FFE701B5002000F0F0F802BDC046EB
:100600000029F7D076E7704703460B437FD40022DA
:1006100043088B4274D303098B425FD3030A8B4296
:1006200044D3030B8B4228D3030C8B420DD3FF2200
:10063000090212BA030C8B4202D31212090265D0CE
:10064000030B8B4219D300E0090AC30B8B4201D381
:10065000CB03C01A5241830B8B4201D38B03C01AC8
:100660005241430B8B4201D34B03C01A5241030B3F
:100670008B4201D30B03C01A5241C30A8B4201D3F0
:10068000CB02C01A5241830A8B4201D38B02C01A9B
:100690005241430A8B4201D34B02C01A5241030A12
:1006A0008B4201D30B02C01A5241CDD2C3098B42F7
:1006B00001D3CB01C01A524183098B4201D38B0174
:1006C000C01A524143098B4201D34B01C01A524117
:1006D00003098B4201D30B01C01A5241C3088B425C
:1006E00001D3CB00C01A524183088B4201D38B0047
:1006F000C01A524143088B4201D34B00C01A5241E9
:10070000411A00D201465241104670475DE0CA0FBF
:1007100000D04942031000D34042534000229C467F
:1007200003098B422DD3030A8B4212D3FC22890189
:1007300012BA030A8B420CD3890192118B4208D35F
:10074000890192118B4204D389013AD0921100E0C1
:100750008909C3098B4201D3CB01C01A52418309D5
:100760008B4201D38B01C01A524143098B4201D302
:100770004B01C01A524103098B4201D30B01C01A2D
:100780005241C3088B4201D3CB00C01A52418308A7
:100790008B4201D38B00C01A5241D9D243088B42FD
:1007A00001D34B00C01A5241411A00D201466346A0
:1007B00052415B10104601D34042002B00D5494204
:1007C000704763465B1000D3404201B5002000F043
:1007D00005F802BD0029F8D016E770477047C046FB
:1007E0008446081C6146FFE71FB500F04FFB002858
:1007F00001D40021C8421FBD10B500F0D3FA404219
:10080000013010BD10B500F041FB002801DB0020D5
:1008100010BD012010BDC04610B500F037FB002808
:1008200001DD002010BD012010BDC04610B500F054
:10083000E1FA002801DC002010BD012010BDC046F7
:1008400010B500F0D7FA002801DA002010BD012011
:1008500010BDC0469E2110B5C905041CFFF7F0FF6E
:10086000002803D1201C00F015FE10BD9E21201C85
:10087000C90500F06BFC00F00DFE80231B069C46B2
:100880006044F2E7F8B54C02640A4746A0464C00C3
:10089000C90FCE4689464146430246005B0A360EE2
:1008A000240E80B5C50F9C463200D800C900371B06
:1008B0004D4560D0002F48DD002C00D17CE0FF2E9C
:1008C00000D183E08023DB04194301231B2F07DCC5
:1008D0000B002022FB40D71BB9404A1E91410B431D
:1008E000C31A5A0100D4B2E09B019C09200002F017
:1008F000C9F805388440864200DDB1E0861B22003D
:1009000020200136F240861BB44023005C1EA34128
:10091000002613435A0704D00F221A40042A00D09D
:1009200004335A0100D495E00136F2B2FF2E00D113
:1009300093E09B015B0A5B02D205580AED07104366
:1009400028430CBC90469946F8BD002F49D1FE249F
:10095000771C3C4200D087E0002E00D0DBE000286E
:1009600000D1CEE00029E6D0431A5C0100D4EEE0CD
:100970000B1A4D46CEE7002F54DD002C3FD0FF2E42
:1009800024D08023DB04194301231B2F07DC0B0039
:100990002022FB40D71BB9404A1E91410B431B1834
:1009A0005A0154D50136FF2E57D001226F491A4003
:1009B0005B080B401343ADE700292CD0013F431ADD
:1009C000002F00D18DE7FF2E00D07EE76346002B7D
:1009D00043D080236246DB0313435B025B0AFF22A2
:1009E000A9E7A21B002E61D1002811D0013A002AEC
:1009F00000D1B2E0FF2C5ED14D46C446E6E70029A7
:100A000009D0013F4318002FCAD0FF2EBCD1DDE72B
:100A10004D46C4462600FF2ED8D063465B025B0AD3
:100A2000F2B288E7002F29D1FE24013634426DD17D
:100A3000002A55D1002800D193E0002900D17AE79F
:100A4000431800265A0102D5494A013613405A0775
:100A500000D061E7DB089C46DDE7FF2200236AE760
:100A6000434B361A234055E7441A63015DD4002CEA
:100A700000D03BE70025002200235CE7A21B002EEC
:100A800028D10028C5D0013A002A6CD0FF2CB4D060
:100A900001231B2A07DC03002026D340B21A904012
:100AA000421E904103435B18260079E7FF2CA3D038
:100AB0008023DB04184301231B2A07DC03002025C5
:100AC000D340AA1A9040421E90410343CB1A4D4690
:100AD000260006E7FF2C90D08023DB041843D7E7DD
:100AE00000288AD0002900D170E780236246DB030A
:100AF0001A4200D16AE742461A4200D066E7C4466D
:100B000064E7002926D04D46434614E7FF2EA4D0C3
:100B100043185B089BE700280AD1002900D06BE747
:100B200080230025DB03FF2205E70C1A4D46DDE696
:100B3000002900D14AE780236246DB031A4200D134
:100B400044E742461A4200D040E74D4655E7002BA5
:100B500000D07CE700250023EDE60B1A4D46260069
:100B6000BFE64346E7E64318260019E7FFFFFF7D8F
:100B7000FFFFFFFBF0B54F464646D6464402450010
:100B8000C0B5640A0F1C2D0EC60F002D4FD0FF2DCF
:100B900055D08023E400DB041C43002399469A4689
:100BA0007F3D7B0278005B0A9846000EFF0F00280D
:100BB00031D0FF2810D08022DB00D2041A439046A7
:100BC00000217F382D1A4B4632000B4371489B00A1
:100BD000C3587A40D2B29F46FF3D002B54D1022326
:100BE0004946194332000B007A40033BD2B20C2B2A
:100BF00004D869499B00CB589F463A000020002446
:100C00006402C305600AD207184310431CBC904617
:100C10009946A246F0BD002B2BD101234946320054
:100C200019438B005D497A40CB58D2B29F46002CC5
:100C300013D104239946033B00259A46B1E7002CC3
:100C400005D108239946063BFF259A46A9E70C23C0
:100C50009946093BFF259A46A3E7200001F012FFC1
:100C60007625431F9C4000236D422D1A99469A46D3
:100C700097E7180001F006FF4246431F9A402D18DF
:100C80009046763500219EE703219CE717003A0045
:100C9000FF200024B4E780240022E403FF20AFE714
:100CA00032005346022BF1D0032B6CD0012BA5D080
:100CB00028007F30002846DD630704D00F2323403F
:100CC000042B00D00434230103D52800344B80309A
:100CD0001C40FE28DCDCA401640AC0B290E780233B
:100CE000DB031C4227D042461A4224D144461C430F
:100CF0006402640A3A00FF2082E73A0044468A46CA
:100D0000CFE7414663014C01A34235D21B200021AD
:100D1000013D01271E0049005B00002E01DB9C42C3
:100D200001D81B1B394301380028F3D11C00631E76
:100D30009C410C43BCE78023DB031C436402640A30
:100D40003200FF205CE70123181A1B2800DD55E75D
:100D50009E352300AC40C340611E8C411C43630799
:100D600004D00F232340042B00D00434630107D4A4
:100D7000A401640A002043E71B1B1A200121C8E7D5
:100D8000012000243CE78023DB031C436402640A47
:100D9000FF2035E7D06001001061010044610100CF
:100DA000FFFFFFF770B542004E024C0045026D0A8E
:100DB000120EC30F760A240EC90FFF2A0FD0FF2C84
:100DC00011D00120A24200D070BDB542FCD18B42AF
:100DD0000DD0002AF8D12800451EA841F4E70120D3
:100DE000002DF1D1EBE70120002EEDD1E9E7002045
:100DF000EAE7C046F0B5420046024D024C00C30F80
:100E0000760A120E6D0A240EC80FFF2A1FD0FF2C7F
:100E100010D0002A1FD171427141002C01D1002D48
:100E20001ED000290ED183421ED00221581E084038
:100E30000138F0BD002D26D1002AF4D17142714154
:100E40000029F0D00028F4D101204042F1E7002E23
:100E500019D1FF2CEED0002CE5D1002DE3D1E4E731
:100E60000020002EE5D0E0E7A24205DCEADBAE423E
:100E700002D8E7D30020DCE7414241414842022149
:100E800008400138D5E702204042D2E7F0B54200E1
:100E900046024D024C00C30F760A120E6D0A240E54
:100EA000C80FFF2A0DD0FF2C0FD0002A23D171428A
:100EB0007141002C0FD1002D0DD10020002E14D037
:100EC0000DE0002E10D1FF2C15D1002D0CD1002AE1
:100ED00003D171427141002908D1834210D002210F
:100EE000581E0840013800E00220F0BD0028FCD167
:100EF00001204042F9E7002CEFD1002DEDD1EEE7C3
:100F0000A24205DCF2DBAE4202D8EFD30020ECE7D0
:100F1000414241414842022108400138E5E7C046CC
:100F2000F0B54F464646D64644024500C0B5884611
:100F3000640A2D0EC70F002D49D0FF2D4FD08023FE
:100F4000E400DB041C43002399469A467F3D434658
:100F500042465E02D20F5B00760A1B0E904646D0D8
:100F6000FF2B12D080220020F600D2047F3B1643D4
:100F7000ED186A1C434694464A467B400F2A00D926
:100F800074E0704992008A589746FF35002E54D17C
:100F90004A4602231A4391460220EAE743463400B8
:100FA00082465246022A2AD0032A00D1C3E0012AEF
:100FB00000D082E0002200246402D205600ADB0730
:100FC000104318431CBC90469946A246F0BD002C25
:100FD00027D104239946033B00259A46B7E7002C06
:100FE00019D108239946063BFF259A46AFE7002E04
:100FF00008D14A4601231A4391460120B9E7FF224E
:101000000024D9E7300001F03DFD431F2D1A9E401A
:10101000763D0020ADE70C239946093BFF259A4613
:1010200095E7200001F02EFD7625431F9C4000230C
:101030006D422D1A99469A4689E74A4603231A4378
:101040009146032095E73B00ABE780240023E403AF
:10105000FF22B1E78023DB031C4245D01E4243D16F
:1010600033435C02640A4346FF22A5E7200C2404B4
:10107000210C0F00320C3604360C774351434643A3
:10108000504389193A0C5218964203D980214902DB
:10109000884640443F0411043F0CC9198C01661E68
:1010A000B441890E2143140C2418A4010C432201DD
:1010B0003CD50122610814400C4360467F30002873
:1010C0001ADD620704D00F222240042A00D0043423
:1010D000220103D560461C4A80301440FE288EDC75
:1010E000A401640AC2B267E78020C003044364021B
:1010F000640A3B00FF225FE70122101A1B2800DD73
:1011000058E762469E3221009440C140621E9441DD
:101110000C43620704D00F222240042A00D004347A
:10112000620105D4A401640A002245E7AC46C4E785
:101130000122002440E78022D20314436402640A9F
:10114000FF2239E77C610100FFFFFFF7F8B543029A
:101150005B0ADA00DE4693464A02520A454690464A
:101160004E4657464446E0B54A0047003F0EE4006D
:10117000120EA1469C463E00C50FC90FBC1AFF2A9D
:1011800000D177E001208246504641408D4200D197
:1011900080E0002C51DD002A00D073E04B46002B8C
:1011A00000D1DDE0013C002C0FD0FF2F00D1A5E0E5
:1011B00001231B2C09DC20224946121B91404B467F
:1011C0000A00E340511E8A4113435A46D31A5A017A
:1011D00000D4C0E09B019C09200001F053FC2300D7
:1011E00005388340864200DDC4E0861B1A002020BB
:1011F0000136F240861BB3405C1EA3410026134318
:101200005A0704D00F221A40042A00D004335A018E
:1012100000D4A3E00136F7B2FF2E00D1A7E09B0176
:101220005B0A5802FF05400AED07384328433CBCDF
:1012300090469946A246AB46F8BD002C4FD1FE24FD
:101240007A1C144200D099E05A46002F00D000E1E9
:10125000002A00D1F1E04A46002AE2D04B465A4625
:10126000D31A5A0100D402E14B465A460D009B1A8C
:101270000026C5E74846002800D183E78D4251D0BB
:10128000002CDADDFF2F39D080234A46DB041A43D5
:1012900091468DE7002C45DD002A3AD0FF2F2DD056
:1012A00080234A46DB041A43914601231B2C09DCA8
:1012B00020224946121B91404B460A00E340511E32
:1012C0008A4113435B445A0145D50136FF2E4ED067
:1012D00001226E491A405B080B40134390E7D41B70
:1012E0000D00002F6FD15B46002B00D18FE0013C39
:1012F000002C00D1C2E0FF2A6CD1C4466346002B0B
:1013000035D080236246DB0313435B025B0AFF2771
:1013100087E74B46002B23D0013C002C74D0FF2FD5
:10132000C3D1EBE7002C35D1FE227E1C324200D027
:1013300089E05A46002F6DD1002A00D1A3E04A4629
:10134000002A00D16DE75B464B4400265A0102D5C6
:101350004F4A013613405A0700D053E7DB089C463A
:10136000FF2ECBD063465B025B0AF7B259E7FF273B
:10137000002356E7464A361A134041E74B465A4681
:10138000D41A63016FD4002C00D025E70025002774
:10139000002346E7D11B002F2CD0FF2AADD080239D
:1013A0005846DB041843834601231B2908DC5B46AF
:1013B00020245846CB40611A8840411E884103438F
:1013C0004B4416007FE7FF2A97D080235946DB0461
:1013D00019438B4601231B2C08DC20215B46584611
:1013E000E3400C1BA040411E8841034349461600C0
:1013F000CB1AECE65B46002B09D001390029DFD07F
:10140000FF2AD1D1C44679E75B464B445BE7C4462B
:101410001600A5E7002A00D16FE74A46002A00D14E
:101420006CE78022D203134200D167E743461342A0
:1014300000D063E70D00C44660E74B46002B1AD08E
:101440000D004346EDE6FF2E91D05B464B445B0812
:1014500081E7002AE1D14B46002BEBD18023002508
:10146000DB03FF27DDE64B460D009C1AB4E60026A1
:10147000002B00D06FE700250023D2E64B465946EB
:1014800016005B1AA3E64346CBE6C046FFFFFF7D8E
:10149000FFFFFFFB41024200C30F490A120E00206A
:1014A0007E2A03D99D2A02D9094A981870478020BC
:1014B00000040143952A07DC9620821AD140484255
:1014C000002BF3D10800F1E7963A9140F7E7C046C8
:1014D000FFFFFF7F70B5002812D0C317C5185D400D
:1014E000C40F280001F0CEFA9E22121A962A11DCAF
:1014F000D2B2082833DD083885406802400A02E08D
:101500000024002200204002D205400AE4071043D4
:10151000204370BD992A0BDD052329001B1AD940F1
:1015200003001B339D402B005D1EAB4119430D0092
:10153000052801DD431F9D402B000A490B406E0723
:1015400009D00F263540042D05D004335D0102D5A6
:101550009F220B40121A9B01580AD2B2D3E76802AD
:10156000400AD0E7FFFFFFFBF8B54746CE460E0323
:101570004D00760ACC0F410F31438946190380B5DF
:10158000490A570F5E000F436D0DC000760DDB0F4B
:10159000B846D2009C4200D1A3E0AF1B002F00DC74
:1015A00083E0002E00D1C1E0C94B9D4200D188E10B
:1015B000802341461B0419438846382F00DD5DE136
:1015C0001F2F00DD07E2202311004646DB1B9E4053
:1015D000F9409A400E434146531E9A41F9404B460A
:1015E0005B1A99463243871AB84280414B464142C2
:1015F000591A0B0200D4D7E049024E0A002E00D13E
:101600002FE1300001F03EFA0300083B20223900B0
:10161000D21A9E40D1409F400E439D4200DD1CE106
:101620005D1B6B1C1F2B00DDAAE12021C91A3D00A8
:1016300030008F408840DD40791E8F4131002843C3
:10164000D940002507437B0709D00F233B40042BDB
:1016500005D03B1DBB42BF417F42C9191F000B0291
:1016600000D4A4E06A1C9A4B55056D0D9A4200D136
:10167000AAE0984AFF080A405007384384465202BD
:10168000120B00211203130B0A0D12051A43924B81
:101690002D0513402B435B00E4075B0823436046A2
:1016A00019000CBC90469946F8BD002F4CD18B4ECA
:1016B000691C314200D0E7E04646494616430143E3
:1016C000B446002D00D00EE2002900D1CFE1002E5B
:1016D00000D010E24B46C0085F070743BC46D9085C
:1016E0006DE0AB1B002B00DC9EE0002E3ED0784965
:1016F0008D4200D1E5E080213E0009040E43B04652
:10170000382B00DD4BE11F2B00DC81E11900464640
:101710002039CE40202B04D04021CB1A414699409D
:101720000A4317007A1E974137433DE1434613436E
:1017300000D1BDE07B1E002B00D1B2E164498F4295
:1017400000D1A7E11F0038E7771B002D00D0EFE0A4
:101750004946014300D177E1791E002900D119E201
:101760005B4CA74200D14BE20F00EAE03900114385
:1017700000D1A0E1591E002900D158E1544EB342D6
:1017800000D187E10B00BBE7514B9E4200D132E212
:10179000821882428041494635004144404209183E
:1017A000CF075208174349087B0700D04DE7480789
:1017B000FF080743BC46C908454B9D4229D00A0390
:1017C0006D05120B6D0D5CE71500002300229C4691
:1017D00057E74B465F07D9084346C00813433843D1
:1017E000002B00D1F6E180231B03194208D04546A7
:1017F000ED081D4204D143462900D2085807104382
:10180000CA00430F1A43C0005707C0080743BC462D
:10181000D10863460B4300D112E2802212030A432F
:101820001203120B2A4D2CE7002B59D12B4B6E1CA7
:101830001E42A9D14B460343002D00D00DE1002BE1
:1018400000D1B2E13B00134300D0B5E14B46C008E4
:101850005F0738438446D908B1E71E49ED1A314085
:10186000F1E6380001F00EF9030018331F2B00DCFD
:10187000CCE63E00083886400027CEE643461343B8
:101880001A00571EBA41AEE649464646871A8E1BD5
:10189000B84289414942761A310200D519E13B002C
:1018A00033439C4600D0A9E600210025002486E7AA
:1018B0004B46C0085B0718434B468446D9083D0099
:1018C0007AE74B46C0085F070743BC46D908A0E744
:1018D000FF070000FFFF7FFFFFFF0F80FE070000F4
:1018E000731B002D00D185E0D8498E4200D173E1F1
:1018F00080214D4609040D43A946382B00DD0EE139
:101900001F2B00DD84E12021C91A05004F468840C5
:101910008F40411E88414946DD40D9402F4307434F
:101920008844BF189742924151424144350040E0FB
:10193000C6498E4200D1A5E080214C4609040C43E3
:10194000A146382F00DDBEE01F2F00DDEDE0202195
:101950000500C91B4C4688408C40FD40411E884113
:1019600049462C432043F9404446611A8846171AD9
:10197000BA42924141465242891A1C00350038E66B
:1019800030001F3DE840202B03D04021CB1A9E4061
:1019900037437B1E9F4100210743002504E7434650
:1019A00013431F007A1E97413F18874280414142EE
:1019B00049440B0200D4F7E6A44B01359D4200D107
:1019C00003E7A34A7B080A4001210F401F43D307C6
:1019D0001F43510837E63B004646203BDE40202FA0
:1019E00004D040234146DB1B99400A43571EBA41AD
:1019F0003243F8E54946014300D1F4E0591E00297D
:101A000000D115E1914DAB4200D1E5E00B0074E748
:101A10002021C91A160047468A408F40511E8A412C
:101A20004146DE40D940374317438944BCE7871815
:101A3000494687429B4141445B42C91801250B023C
:101A400000D4B1E60225BCE74146D208480702436C
:101A50009446C9081C003D00AEE6002B00D0B8E655
:101A60003B00D2087F071743BC46D908D1E6002EB9
:101A700000D18CE04146D2084F073A439446C9084A
:101A80001C009CE64146D2084F073A439446C908D9
:101A90001C00BEE64B46C0085F0738438446D908A1
:101AA000B7E6871A4B464246B8428041991A4042EF
:101AB000091A01259DE54A46C00857073843844660
:101AC000D1081D0078E6494601430800471EB84189
:101AD0004DE7171A41464846BA42B641091A7642BE
:101AE0008E1B1C008AE500292ED1002ECAD1802130
:101AF0000024090391E649464646871A8E1BB842E0
:101B000089414942711A0E023CD5171A414648468E
:101B1000BA429241091A5242891A1C0093E54B4677
:101B200003431F00781E8741FBE639004C462039ED
:101B3000CC40202F04D040214D46C91B8D40284366
:101B4000411E8841204312E74946C0084D072843FB
:101B5000C908002E3ED080252D03294208D04646D4
:101B6000F7082F4204D11C003900D2087007104337
:101B7000CA00430F1A43C000C008570738438446C1
:101B8000D10846E63B000B439C4600D00CE6002102
:101B9000002414E6171A41464846BA429241091AEF
:101BA0005242891A1C00012523E53B00D2087F0719
:101BB0001743BC46D90802E68718494687429B412D
:101BC00041445B42C9180B0200D4EDE5204B0125CE
:101BD0001940E9E584461CE64346D2085F073A43CC
:101BE0009446D90815E63900D2087F073A4394464F
:101BF000C9081D00E0E50023350000229C4640E5B1
:101C00004146D2084F071743BC46C9081C0000E6EE
:101C100019004D462039CD40202B04D04021CB1A4D
:101C20004946994008430700781E87412F4378E6CC
:101C30008718494697429B4141445B42C918FDE6DB
:101C40000023024D9C461A001BE5C046FF0700001A
:101C5000FFFF7FFFF0B557464E464546DE46E0B5EE
:101C60000C030600480087B092469846240B400DAE
:101C7000CF0F002800D178E07B4B984200D190E054
:101C8000730FE4001C438023784A1B041C439446D2
:101C9000030063440093002399469B46F5004346A6
:101CA00042461E03D20F5B005046360B5B0D90463A
:101CB00000D180E06C4A93421DD06C49420F8C46A3
:101CC00000996344F6008C46164380229C4412041B
:101CD00063461643C2000020009300994346013139
:101CE0008C4649467B4001930F2900D9C6E0604BE2
:101CF000890059588F465C4952468C46009B3243B6
:101D000063440093002A00D08DE049460223194322
:101D1000894600260220E0E743460193340015007F
:101D200083465B46022B64D0032B00D1F1E1012BEB
:101D300000D05EE100220026002500213603340B8E
:101D40000E0D360526434B4C120534401443019BBF
:101D50006400DB0764081C432800210007B03CBC7A
:101D600090469946A246AB46F0BD2500354352D079
:101D7000002C00D176E1200000F084FE02000B3A36
:101D80001D2301009B1A3200350008398C40DA40CF
:101D90008D401443384B1B1A0093002399469B46F1
:101DA0007DE7350025432FD108239946063B0024C3
:101DB00000909B4673E7524632431ED0002E00D15E
:101DC00042E1300000F05EFE02000B3A1D230100EC
:101DD0009B1A52460839DA408E40164352468A40D2
:101DE000009B2549181A03008C4663440093002089
:101DF00073E71D4A002600259FE749460123194342
:101E000089460026012068E70C239946093B3500E6
:101E100000909B4643E70423994600230093013337
:101E200000249B463BE74A4603231A43914603207E
:101E3000524652E7019774E7002380260193360348
:101E40000025094A79E780231B031C4200D1F3E0F7
:101E50001E4200D0F0E01E43434636031500360B09
:101E60000193014A69E7C046FF07000001FCFFFF3C
:101E7000BC610100FFFF0F800DFCFFFF2F0C2D0444
:101E80002D0C2B00110C1204120C53439846130016
:101E900028007B43994648434844834640460B000C
:101EA000000C824658467B4350440293814506D934
:101EB0009A4680235B029946CA4453460293030C18
:101EC0009B4643461B0400041B0C984603004344F6
:101ED0000493330C99462B003604360C7343984612
:101EE00033007B439A464B465D435F43434655442C
:101EF000180C4019824503D980235B029A46574447
:101F0000050CEB19059343461D042D0C00044019E4
:101F1000250C2404240C270057436A4390462A00CA
:101F20003B0C9A464A4361434144514483448845AB
:101F300003D980235B02984642443F040B0C3F0CBC
:101F40000904C919270098464B4677435C436E4302
:101F50005D433B0C9946A4194C4442440395A64268
:101F600004D980235B02984645440395029B3F04B5
:101F70005B441E008342804123049846059B3F0C2E
:101F80004744984676188E428941474440423D185E
:101F9000A846494293468A46C344DA449F42BF4119
:101FA00080458041039B934592418A4589419846EB
:101FB000534640427F420743240C524249420A435F
:101FC0003C19A418DA0D049B75021D43681E854157
:101FD000534644446402F60D144335435A021543F4
:101FE000E30173D501216A080D401543E20715434B
:101FF00064084B4A6244002A43DD6B0709D00F2175
:102000002940042905D0291DA942AD416D4264191A
:102010000D00E30104D5434A14408022D2006244FB
:1020200041498A4200DDE4E66107ED086402520599
:102030000D43260B520D80E68026360326433603D9
:10204000360B0197394A78E600F01CFD03001A00B0
:10205000153220301C2A00DCB8E65646083B002228
:102060009E40BDE6300000F00DFD03001A00153261
:1020700020301C2A00DC83E63400083B00259C400D
:1020800088E60121891A382900DD53E61F2920DC62
:102090002748220060442E0085408240CE40681EC2
:1020A000854132432A43CC40530709D00F211140C8
:1020B000042905D0111D914292415242A4180A00F0
:1020C00023021FD501220026002536E6009B9C46F0
:1020D0008FE71F204042821A2000D040202903D0E1
:1020E000144A6244944025436A1E95412A000725FC
:1020F000024315400026002D07D00F210024114077
:102100000429D7D165076402260BD20815430022A3
:1021100013E68026360326433603360B034A0CE6C5
:10212000FF030000FFFFFFFEFE070000FF070000A7
:102130001E0400003E040000F0B5574645464E46DA
:10214000DE46E0B50F037F0A450F3D43AC465D0018
:102150004E00CC0F690D8A461F03CE49550F83B040
:10216000C0007F0AD200760D8046DB0F2F4301921C
:102170008A4500D1C0E05546751BA9460125AB46EE
:102180005D466B409B469C4200D190E04D46002D41
:1021900000DCBBE05346002B00D1D4E08E4200D1DE
:1021A0009BE280231B041F434B46382B00DD8CE150
:1021B0001F2B00DD34E2494620233D005B1A11004D
:1021C0009A409D40531E9A414B46A8464D46DF40DB
:1021D0006346E9404546DB1B9C460D431543451BC2
:1021E000A842804163464142591A0B0200D40DE1D6
:1021F00049024B0A98464346002B00D158E140461D
:1022000000F040FC0300083B202229004746D21A78
:102210009F40D1409D400F439E4200DD44E19E1B04
:10222000731C1F2B00DDD0E120222800D21A3900B8
:1022300095409140D8406A1E954101430D433900B5
:102240000026D9406B0709D00F232B40042B05D063
:102250002B1DAB42AD416D4249191D000B0200D44C
:10226000D7E0721C8B4B5605760D9A4200D1DFE009
:10227000894FED080F407807284382467A02120BF7
:1022800000211203130B0A0D12051A43834B360566
:10229000134033435B00E4075B08234350461900B7
:1022A00003B03CBC90469946A246AB46F0BD4D46B5
:1022B000002D5BDD5346002B00D18AE08E4200D119
:1022C00027E180231B041F434B46382B00DD8CE1A4
:1022D0001F2B00DCC3E13900203BD9404B46202BAB
:1022E00005D040234D465B1B9F403A430192019D20
:1022F0006F1EBD410D437CE169493D008946154390
:10230000B144002D2DD09B469C422FD04946002938
:1023100049D1644D711C294200D0DBE03D0061468B
:1023200015430143AA46002E00D0EAE1002900D15E
:10233000BAE1002D00D0FAE16346C0085A07024313
:102340009246D9086EE03B00134300D1D9E04B46DA
:10235000013B002B00D1B7E1894500D1D9E0994676
:1023600022E701256B409B469C42CFD1494600297C
:1023700000D0D6E0711C8A4655464A490D4236D1F6
:1023800061460143002E58D1002900D111E23B00E3
:10239000134300D013E26346C0085B07184363464B
:1023A0008246D9083EE05146891B89465C46002E8C
:1023B00000D0E3E06346034300D16FE10B00013B33
:1023C000002B00D1ECE1334DA94200D1E2E1994666
:1023D000DDE03B00134300D186E14B46013B002B7F
:1023E00000D14FE1894500D193E099466CE7294B34
:1023F0009A4500D1F0E182188242894156466744ED
:1024000049427918CD075208154349086B0700D097
:102410001AE74B07ED081D43AA46B146C9081D4BF4
:1024200099452CD04B460A035E05120B760D27E723
:102430001600002300229A4622E7002900D13DE140
:1024400063463E005D07C008D90816432843002EA6
:1024500000D19DE180252D03294207D0FE082E42A0
:1024600004D15C463100D20878071043CA00410FFE
:102470001143C0004A07C00810438246C9085346AA
:102480000B4300D1EDE1802212030A431203120B29
:10249000004EF5E6FF070000FFFF7FFFFFFF0F8004
:1024A00001F8FFFFFE070000D149F61A3940C9E6DE
:1024B000280000F0E7FA030018331F2B00DCA3E626
:1024C000083885402F000025A6E63A4315006A1E0D
:1024D000954184E66146851ACB1BA8428941494251
:1024E000884619004346C91A0B0088461B0200D5CE
:1024F00013E10B002B439A4600D07CE60021002418
:1025000090E76346C0085B07184363468246D908D4
:1025100085E76346C0085B07184363468246D908CF
:10252000ADE753469B1B9946002E00D189E0B14B85
:102530009A4500D1C2E0802361461B0419438C46B2
:102540004B46382B00DD04E11F2B00DD54E14946EA
:1025500020234E465B1A6546010098409D40F1409D
:10256000431E98410D4305436046F0403F18AD18A7
:10257000954289414942C91956463FE09D4B9A45CB
:1025800000D19BE0802361461B0419438C464B46D7
:10259000382B00DDAFE01F2B00DDE0E049462023B3
:1025A0004E465B1A6546010098409D40F140431E2F
:1025B00098410D4305436046F0403F1A551BAA421F
:1025C00089414942791A56460FE63A001F3EF240C9
:1025D0001600202B03D04022D31A9F403D436B1E90
:1025E0009D4100213543002610E73A4315006A1E3D
:1025F00095412D1885428041414261440B0200D42F
:1026000004E77C4B01369E4200D112E70122784F4D
:102610006B08394015401D43CB071D43490811E69F
:102620003900203BD9404B46202B05D040234D4656
:102630005B1B9F403A430192019D6F1EBD410D43BC
:10264000CDE56346034329D04B46013B002B00D127
:1026500000E1684DA94500D19CE0994670E74946E4
:1026600020233D005B1A9D4011009A40A8464D462C
:10267000531E9A414B46E9404546DF400D43154302
:10268000BC44B6E7851885428941674449427918B8
:1026900001260B0200D4B9E60226B7E7D2087B0771
:1026A0001A439246F908BAE6002D00D126E77807CA
:1026B000D20810438246F9085C46B3E67807D20890
:1026C00010438246F908DAE6851A6346A84280413B
:1026D000DF1B4042391A012687E56346C0085A07C6
:1026E00002439246D908CAE66346C0085A07024325
:1026F0009246D90893E6634603431D00681E854150
:102700005CE700293DD1002D00D19FE07907D20878
:102710000A439246F9085C46B1E6151A6346AA4296
:102720009241FF1A5242BB1A98465C4663E56346E3
:10273000851AD91BA8429B415B42C91A0B0250D58E
:10274000151A6346AA429241FF1A5242B91A5C46D0
:1027500078E5634603431D00681E854107E766462A
:10276000203BDE404B46202B06D0494640235B1AD7
:1027700061469940084380464546691E8D41354370
:102780001CE76346C0085E07D908002D46D13043D8
:10279000824674E6D2087B071A439246F9086EE631
:1027A000151A6346AA429241FF1A5242B91A0126EB
:1027B0001BE5D2087B071A439246F90832E68518D2
:1027C000854289416744494279180B0200D41DE6CD
:1027D000074B0126194019E60023564600229A4667
:1027E0004EE52B000B439A4600D187E60EE6C04625
:1027F000FFFF7FFFFF0700006646203BDE404B46A1
:10280000202B06D0494640235B1A61469940084375
:1028100080464546691E8D413543A8E60643802023
:102820000003014208D0FD08054205D1D2087F0708
:102830003A4316005C462900CA00710F1143F600A6
:102840004A07F60832439246C90818E68021002458
:10285000090318E685189542924167445142791858
:1028600016E70023014E9A461A0009E5FF0700000B
:1028700070B5041E10D000F005F9134B1B1A5B0550
:102880005D0D0A2818DC0B2322001B1ADA401530D4
:1028900012038440120B01E00025002200211203E4
:1028A000130B0A0D20001205084C1A4322402B0579
:1028B00013435B00590870BD22000B38824012039D
:1028C000120B0024EAE7C0461E040000FFFF0F8041
:1028D00070B541004602C40FFE20090E4B1C750A5C
:1028E000184214D0E0239B006D07360BCB18002153
:1028F0000A0D280012051C4D32435B052A405B0877
:1029000013435B00E4075B082343190070BD0029F3
:1029100014D1002D1ED0280000F0B4F80A281CDCC9
:102920000B232A001B1ADA40030015339D400F4B7E
:1029300012031B1A5B05160B5B0DD8E7002D06D0A2
:10294000320B802636036D071643094BCFE7084B41
:102950000026CCE700230026C9E703002A000B3B32
:102960009A400025E3E7C046FFFF0F80890300007F
:10297000FF0700004A00F0B50B03520D3D4D5B0A06
:10298000470F561CC90F1F43C4002E4228D03A4B94
:10299000D518FE2D08DDFF2200204002D205400A96
:1029A000C90710430843F0BD002D2DDD8001020052
:1029B000501E8241FB00640F134323435A0757D034
:1029C0000F221A40042A00D004338022D2041A4075
:1029D0004ED00135EAB2FF2DDDD09B01580ADCE76D
:1029E0003C43002A06D1002C0BD005239B01580A3A
:1029F000D2B2D2E7002CCED08020C0033843FF22D1
:102A0000CBE700220020C8E72B00173322DB80230E
:102A10001E261B043B43761B1F2E1DDD0220404259
:102A2000451B1800E8400500202E04D013488446BA
:102A3000624493401C4323005C1EA3412B430025AA
:102A40005A07BDD18020C00418400122A842C4D139
:102A50000200CBE70022C8E7094810182200844092
:102A6000250083406C1EA541F2402B431343E6E74B
:102A70002A00BBE7FE07000080FCFFFFA2FCFFFF6F
:102A800082FCFFFF1C2101231B04984201D3000C90
:102A900010391B0A984201D3000A08391B099842D1
:102AA00001D30009043902A2105C40187047C046E7
:102AB0000403020201010101000000000000000007
:102AC0008022044B52051A60BFF34F8FBFF36F8F04
:102AD0007047C04604ED00E030B5027883B00300D3
:102AE000002A2AD0048B002C29D16A46EFF31080EB
:102AF00072B6D071134802780132D2B20270012A44
:102B000016D001221A830022596120215A820E4ACE
:102B100013780B4313700378013BDBB20370002B77
:102B200003D10A4B187880F31088200003B030BD21
:102B30006A46D579054A1570E3E70724F5E70824C6
:102B4000F3E7C04621F1FF1F0070074022F1FF1F8D
:102B500030B5027883B00300002A31D0048A002CFB
:102B600030D16A46EFF3108072B6D0711648027801
:102B70000132D2B20270012A1DD001221A82002233
:102B80001A81124AD960D3785BB2002B11DB802105
:102B90000E4A13780B4313700378013BDBB20370CA
:102BA000002B03D10A4B187880F31088200003B063
:102BB00030BD5379EBE76A46D579054A1570DCE7F5
:102BC0000724F3E70824F1E721F1FF1F0070074015
:102BD00022F1FF1F70B582B06B46DE1DFF233370FC
:102BE0000023084C01002370074B5D692800FFF7A4
:102BF000AFFF31002800FFF76FFF2378002BFCD0D8
:102C000002B070BD20F1FF1FB8F0FF1F70B584B097
:102C10006B46D871DE1D00230F21084C69442370D8
:102C2000074B5D692800FFF793FF31002800FFF78D
:102C300053FF2378002BFCD004B070BD20F1FF1FA0
:102C4000B8F0FF1F70B582B06B469E1DFF23337036
:102C50000023094C2370094B5D696B462800D91D80
:102C6000FFF776FF31002800FFF736FF2378002BAF
:102C7000FCD002B070BDC04620F1FF1FB8F0FF1FAE
:102C8000F0B54F464646D64680220121C0B5920097
:102C90009146464A84B0944602AA07320192444AB9
:102CA0008846030000261100424F8144187802AD87
:102CB0006871604645693E702878002858D0288A97
:102CC00000282DD1019CEFF3108072B62070087897
:102CD0000130C0B20870012802D12078364C207033
:102CE00002A80630E86040462E812882334DE878FD
:102CF00040B2002800DA68798024304D28782043DB
:102D0000287008780138C0B20870002803D12A4C16
:102D1000207880F31088604645692878002827D0FD
:102D2000288B002824D1019CEFF3108072B620700C
:102D300010780130C0B21070012802D120781E4CEA
:102D400020702024A24602A80530686140465446FF
:102D500028836E82194D2878204328701078013816
:102D6000C0B21070002803D1134C207880F3108873
:102D700038780028FCD001334B4597D1FFF762FF2C
:102D8000FFF760FF019C2000FFF724FF1F2322783C
:102D900000201340052B05D004B01CBC904699467A
:102DA000A246F0BDFFF74EFF0120F5E7B8F0FF1F88
:102DB00021F1FF1F20F1FF1F22F1FF1F00700740CC
:102DC00010B5030082B0FF280FD06A46EFF31080E1
:102DD00072B6D07107320024054998004450012092
:102DE0000449C854107880F3108802B010BDC04662
:102DF00024F1FF1F2CF1FF1FF8B5404B04000D001C
:102E0000994257D0002907DB00D06CE03023461CE4
:102E1000037000233370F8BD4F423FB20A213800DF
:102E2000FDF7D8FC3031217038000A21FDF7ECFBAA
:102E300000B2661C00284CD00A21FDF7CBFC3031D3
:102E4000617038006421FDF7DFFB00B2A61C00288A
:102E50004BD00A21FDF7BEFC3031A170FA213800B9
:102E60008900FDF7D1FB00B2E61C002840D00A2102
:102E7000FDF7B0FC3031E17038002149FDF7C4FBAB
:102E800000B2261D002836D00423052230302071E0
:102E9000661D002D20DB5508EDB20023013AA21873
:102EA0001078E15CE05401331170D9B2013A8D42DF
:102EB000F6D8AEE72D23037006334370013B8370D1
:102EC0000533C370013B03710233437100238371E7
:102ED000A1E7002D9DDA00239A1C2D23550833709D
:102EE000EDB2A618D9E70F0098E701230222D0E738
:102EF00002230322CDE703230422CAE70080FFFF59
:102F000010270000F8B5802304000D001B0699422D
:102F100069D04F42002907DB05D13023461C0370DE
:102F200000233370F8BD0F000A213800FDF752FC72
:102F30003031217038000A21FDF766FB661C00283D
:102F40006CD00A21FDF746FC3031617038006421F5
:102F5000FDF75AFBA61C002855D00A21FDF73AFCC4
:102F60003031A170FA2138008900FDF74DFBE61CD5
:102F7000002858D00A21FDF72DFC3031E1703800CF
:102F80003049FDF741FB261D00284FD00A21FDF7EF
:102F900021FC3031217138002B49FDF735FB661DCE
:102FA000002846D00A21FDF715FC30316171380048
:102FB0002649FDF729FBA61D00283DD00A21FDF773
:102FC00009FC032507223031A171E61D0023013AD7
:102FD000A2181078E15CE05401331170D9B2013AC3
:102FE0008D42F6D89CE72D23037005334370013BD7
:102FF00083700333C370437104333722837100231A
:103000000271C3718EE701230222002D17DA9A1C88
:103010002D2355083370EDB2A618D7E7002D00DB3D
:103020007EE70023F3E702230322EEE703230422D3
:10303000EBE704230522E8E705230622E5E7550828
:10304000EDB2C3E710270000A086010040420F0048
:103050000B6870B504000D00002B02D020209847AB
:103060002B68207826000200203A10365F2A0BD801
:10307000002B00D098470134B44209D020782B6847
:103080000200203A5F2AF3D9002BF4D02E20F1E77A
:1030900070BDC04602001F3270B5150006780300EF
:1030A000141A002E05D001309042F7D100232B7066
:1030B00070BD002C0ED00A78002A0BD0013C0419F8
:1030C00001315D1C1A70A342F0D00A782B00002A4F
:1030D000F6D1EBE70500E9E7002310B582B001AABD
:1030E00093700F330B403024092B00D907341B1980
:1030F000537009093024092900D9073409191170BE
:103100000278002A21D04278441C002A1CD08478FE
:10311000821C002C13D0C478C21C002C0FD0047960
:10312000021D002C0BD04479421D002C07D083795E
:10313000C21D002B0CD00023137002B010BD541C14
:103140001170621C2370F6E72000441C0170F8E740
:103150008171F0E70023F0B585B001AA13720F3337
:103160000B403024092B00D907341B19D3710B06EF
:103170001B0F3024092B67D81B1993710B051B0FEC
:103180003024092B57D81B1953710B041B0F302403
:10319000092B47D81B1913710B031B0F3024092B64
:1031A00037D81B19D3700B021B0F3024092B27D8DB
:1031B0001B1993700B011B0F3024092B18D81B19F6
:1031C00053700B0F3021092B10D805001F352E002E
:1031D000C9181170077803002C1A002F3DD0013058
:1031E000A842F7D10023337005B0F0BD0731ECE7FA
:1031F00007341B1953700B0F3021092BE5D9F5E764
:1032000007341B1993700B011B0F3024092BD6D9DF
:10321000EEE707341B19D3700B021B0F3024092B68
:10322000C6D9EDE707341B1913710B031B0F3024AC
:10323000092BB6D9EDE707341B1953710B041B0F8B
:103240003024092BA6D9EDE707341B1993710B0520
:103250001B0F3024092B96D9EDE7002C0BD0013C35
:10326000041901325E1C1970A342BBD011783300DF
:103270000029F6D1B6E70600B4E7C046F0B5CE4661
:103280004746002280B585B001AB1A720F320A4062
:103290003024092A00D9073412190F06DA713F0FBA
:1032A0003022092F00D98DE0B94691444A460E05D7
:1032B0009A71360F3022092E00D979E0B6180D0424
:1032C0005E712D0F3022092D69D8AD180C031D71C8
:1032D000240F3022092C58D83027A4180A02DC7099
:1032E000120FBC46092A4DD89444624630279A7082
:1032F0000A01120FB846092A3AD8302742445A70B8
:10330000090FB846092930D8414419700378002BB9
:103310005AD0431C98464378002B00D17AE0831C96
:1033200098468378002B00D178E0C31C9846C37878
:10333000002B00D179E0031D98460379002B00D1C2
:1033400075E0431D98464379002B00D171E08379E5
:10335000002B00D16FE0C31D984600234246137036
:1033600005B00CBC90469946F0BD0737B846CBE790
:103370000737B846302742445A70090FB846092922
:10338000C2D9F2E70737BC46AEE730270732A418A8
:103390000A02DC70120FBC46092AA5D9F2E70732EF
:1033A000AD180C031D71240F3022092C94D9ECE7C1
:1033B0000732B6180D045E712D0F3022092D00D88A
:1033C00083E7ECE707326FE707239846431C017059
:1033D00040460138591C88461A700128BDD09A1CF5
:1033E000904662465A700228B7D0DA1C90469C700C
:1033F0000328B2D01A1D04389046DD700028ACD0E6
:103400005A1D90461E710128A7D09A1D90464A4623
:103410005A71A2E7062340469846D7E7052043465F
:103420004746013339700138D4E70420F7E7032019
:10343000F5E70220F3E7C31D984681718DE7C0468A
:1034400010B50C001F340B780200002B04D00131A2
:10345000013013708C42F6D10023037010BDC046BA
:10346000F0B50600436808365B6894464360B34293
:1034700014D06246DF68146807E0DD68072C01D8C5
:10348000A2008D500134AF4204D05B689E42F4D15B
:103490007368F2E7436063461C60F0BDC368436035
:1034A000E7E7C04630B5114A00E01A0013688342CE
:1034B000FBD3546841681519A84212D04418A3429E
:1034C00004D00360904200D0106030BD084C2468E6
:1034D000A342F6D05C681B68A44661444160036067
:1034E000F0E7091951601000E8E7C04670140020A9
:1034F00064F3FF1F034A1368013B1360002B00D1E4
:1035000062B6704704F0FF1F72B6044A13680133B5
:103510001360BFF34F8FBFF36F8F704704F0FF1F2F
:10352000EFF309800E4B1A6820381060F0C0444653
:103530004D4656465F46F0C008B572B601F0D8FE5B
:1035400062B60CBC116808681030F0C8A046A946E5
:10355000B246BB4680F309882038F0C81847C046F9
:103560005CF3FF1F000000000000000000000000EE
:1035700082B06A460C4B1B68DBB2D371084A1368F1
:103580001868203080F30988022080F31488BFF384
:103590006F8F3FBCAE4608BC04BC62B61847C0463D
:1035A0005CF3FF1F02B0704708F0FF1F70B505689D
:1035B000002D16D00026AE57F3B2202B0CD93A2E90
:1035C0000FD02B0002E03A2A08D0230001229A569D
:1035D0005C1CD1B22029F6D8002070BD0135AC4268
:1035E00002D001204042F8E7302EFAD102330360C6
:1035F0000020F2E730B503681A78202A03D101339E
:103600001A78202AFBD000220A701C78303CE4B2E1
:10361000092C28D80C705A785D1C303AD2B2092A8D
:103620001ED8A500641964001219D2B20A709C78E1
:103630009D1C303CE4B2092C12D89500521952005E
:10364000A218D2B20A70DD1CDB78303BDBB2092B4A
:1036500006D890001218042052009A180A7030BD43
:1036600005600020FBE71B20F9E7C04600207047FB
:10367000F0B51F00002383B00B7015001370089A7B
:103680003B7013700368060001931A780C00013335
:10369000202A05D1019301335A1E1278202AF9D02D
:1036A000210001A8FFF7A6FF002806D12378182BD8
:1036B00003D8019B1A783A2A02D01B2003B0F0BD30
:1036C0000133290001A80193FFF794FF0028F4D1EA
:1036D0002B783C2BF1D8019B18783A2804D0202273
:1036E0009043EAD13360E9E70133390001A801933F
:1036F000FFF780FF0028E0D13B783C2BDDD8019A12
:1037000013782C2B14D1531C0193537819003039A2
:103710000929D2D891789C001B190C005B00303C21
:10372000DBB2092C06D81039089A5B181370C5E76C
:103730003260C3E70899203302320B703260BDE774
:10374000F0B54746CE4680B51E00036883B00193AE
:1037500015001A7807000C000133202A05D10193C7
:1037600001335A1E1278202AF9D0210001A8FFF750
:1037700041FF002808D12378013B1E2B04D8019A71
:1037800013782D3B012B09D900231B2023702B70AC
:10379000338003B00CBC90469946F0BD013229003D
:1037A00001A80192FFF726FF0028EDD12B78013BFD
:1037B0000B2BE9D8019A13782D3B012BE4D8531C2D
:1037C00001935278202A03D101331A78202AFBD0A2
:1037D000002232801A78303AD1B20929D4D892B274
:1037E000591C3280894659788C4630214942884696
:1037F000C4446146C9B2092957D8910052185200F1
:10380000624492B2991C3280894699788C46302164
:1038100049428846C4446146C9B2092945D8910045
:1038200052185200624492B2D91C32808946D9782B
:103830008C46302149428846C4446146C9B20929B0
:1038400028D8910052185200624492B2191D328059
:10385000894619798C46302149428846C4446146DC
:10386000C9B2092916D891005218591D894630212C
:103870005200494262448C4692B232805B799C4449
:103880006346DBB2092B05D89300D3185B00634471
:10389000338079E7531E0B499BB28B4200D973E703
:1038A000632A08D94B463B6073E7531E05499BB218
:1038B0008B4200D968E7FA23DB009C4662443280E1
:1038C000F0E7C046B70B000070B5040082B00D00F1
:1038D00000282ED06B46EFF3108072B6D8710733F4
:1038E0001F4A1668187880F310881E493000FCF7CC
:1038F00001FE1C4920703000FCF782FE0E001A49C0
:103900003000FCF7F7FD184960703000FCF778FED6
:103910000E00FA2130008900FCF7ECFDFA21A070BE
:1039200089003000FCF76CFE08000A21FCF7E2FD7C
:10393000E070002D11D06B46EFF3108072B6D87195
:1039400007330A4A12882A80094A1278AA70094A5B
:103950001278EA70187880F31088002002B070BDE9
:10396000E4F3FF1F80EE360060EA0000A0F0FF1FC6
:103970009EF0FF1F9DF0FF1F30B583B06B46040023
:10398000EFF3108072B6D8710733164A15681878AD
:1039900080F3108814492800FCF7ACFD1249207010
:1039A0002800FCF72DFE0D0010492800FCF7A2FDB1
:1039B0000E4960702800FCF723FE0D00FA21280054
:1039C0008900FCF797FDFA21A07089002800FCF718
:1039D00017FE08000A21FCF78DFDE070002003B0FF
:1039E00030BDC046E4F3FF1F80EE360060EA000001
:1039F00010B582B06B460400EFF3108072B6D87138
:103A0000DA1D0F4B1978002910D15878002805D1FC
:103A1000107880F31088FF2002B010BD5970094B58
:103A20005C60107880F310880120F5E700211970A0
:103A3000044B1C60107880F310880020ECE7C0462F
:103A40002CF1FF1F24F1FF1F10B51E4B1E481968F3
:103A5000C378DBB25AB2002A12DB20221A420ED0FF
:103A60004B8A088B834224D24A690133541C4C612F
:103A70001478154A9BB254714B8298421ED010BDE7
:103A80000A8A002AE9D0CA68541CCC6044791470B0
:103A90000A890C8A013292B20A819442DDD17F22D6
:103AA000047822400270002201200A82074A107026
:103AB000D3E705490B7893430B70E0E700230B83B2
:103AC000DDE7C046B4F0FF1F0070074020F1FF1F84
:103AD000F0B5DE4646465746C0B582B0FFF7B2F8AD
:103AE000FA204000FFF784FF534B544A9C466B4634
:103AF0005E1DFF239A46524B050011009846514C1B
:103B00006B46504698710023237063465F693B788B
:103B1000002B58D03B8A002B2DD16B46EFF3108041
:103B200072B6D871087807330130C0B20870012826
:103B300002D11B784448037001233B820023434891
:103B4000FE603B81C3785BB2002B00DA43798027AB
:103B50003E4803783B4303700B78013BDBB20B70AC
:103B6000002B03D1384B187880F3108863465F69C7
:103B70003B78002B27D03B8B002B24D16B46EFF3F7
:103B8000108072B6D871107807330130C0B210704F
:103B9000012802D11B782C4803706B4606337B61E9
:103BA00001233B8300237B822027284803783B4363
:103BB00003701378013BDBB21370002B03D1224B4F
:103BC000187880F310882378002BFCD03378FF2BF3
:103BD0002BD0FF2D22D06B46EFF3108072B6D87138
:103BE00007334746A800C3463F58187880F310882B
:103BF000002F00D084E7EFF3108072B61870002118
:103C00005846AA008150124A01315155187880F364
:103C100010883378FF2B01D1002000E0082002B08B
:103C20001CBC90469A46A346F0BDFF2DF4D06B46CF
:103C3000034A07339346DEE7B8F0FF1F21F1FF1F69
:103C400024F1FF1F20F1FF1F22F1FF1F007007402A
:103C50002CF1FF1FF0B5C64600B543B282B0060096
:103C60000D00002B45DBFFF733FF00284FD130005C
:103C7000FEF7CCFF280EFEF7C9FF280CC0B2FEF7F6
:103C8000C5FF280AC0B2FEF7C1FFE8B2FEF7BEFFCB
:103C9000402E3ED0482E46D00120FEF7B7FF6B469F
:103CA0009C1D4C2E3BD06420FFF7A2FE8046FF28CF
:103CB0001BD06B461F4FDD1D86002000FEF78AFFDC
:103CC00023787F2B09D9EFF3108072B628702878FB
:103CD00080F31088F359002BEFD14046FFF770F8BE
:103CE000207802B004BC9046F0BD2000FEF772FFC1
:103CF000F3E700217720FFF7ADFF6B4698710128AD
:103D0000EFD87F231E40FFF7E3FE0028AFD0FF204F
:103D1000E7E79520FEF77AFF6B469C1DC3E720007E
:103D2000FEF758FFBFE78720FEF770FF6B469C1D2C
:103D3000B9E7C04624F1FF1FF8B5DE4657464E46A8
:103D40004546E0B543780400002B08D0012398468F
:103D500040463CBC90469946A246AB46F8BD3F4F14
:103D60003B78DB07F2D404233A781342EED13C4A85
:103D7000466B127831001340994600D171025820E9
:103D8000FFF768FF0028E1D1FFF7A2FE8046031E7F
:103D9000DCD138339A46FE20A244FEF737FF504666
:103DA000FEF76EFF0028D1D04346A26AE370236A73
:103DB000B21A9A42CCD2A578012DC9D94A46002A16
:103DC00025D0012291460332934603E0013D012DA7
:103DD000BED0236AF6186378002BF7D14A463B78A9
:103DE0001A42F3D15A463B781A42EFD1310058209B
:103DF000FFF730FF0028E9D1FFF76AFE0028E5D180
:103E0000FE30FEF703FF5046FEF73AFFDEE70122E1
:103E100091460332934603E0013D012D98D0236A79
:103E2000F6186378002BF7D14A463B781A42F3D153
:103E30005A463B781A42EFD171025820FFF70AFF29
:103E40000028E9D1FFF744FE0028E5D1FE30FEF757
:103E5000DDFE5046FEF714FFDEE7C04601F0FF1F0F
:103E600000F0FF1F70B5C3780400002B4BD12378FE
:103E7000032B0FD063780120002B00D070BD364A91
:103E8000012013781840F9D1FFF722FE431E984114
:103E9000C0B2F3E72579012DECD126008022383617
:103EA00092000021300010F027FD55222B4BE254E8
:103EB0002B4B5532E2542B4B2B4AA36387239B0099
:103EC000E250882263699200A354284A190AA15437
:103ED000274A190CA154274A1B0EA3542369013207
:103EE000A354254A190AA154244A190CA154244A5E
:103EF0001B0EA354636A591C63786163002B07D0BF
:103F000000222271B7E7FFF717FF0028AFD0B5E70F
:103F1000114A107805401BD104231078034219D1AF
:103F2000184A1278134200D149025820FFF792FE36
:103F3000002801D06378E3E7FFF7CAFD0028F9D134
:103F4000FE20FEF763FE3000FEF79AFE6378D7E7A7
:103F5000237195E7257193E701F0FF1F36020000FA
:103F60003702000052526141727241612102000029
:103F700022020000230200002502000026020000A9
:103F80002702000000F0FF1FF0B5002183B04020A1
:103F9000FFF760FE040001280BD000240121314B03
:103FA0001C70314B1A788A431A701878C0B203B06B
:103FB000F0BDD52148204900FFF74CFE012818D15B
:103FC00001AF6B463C0002AEDD1C2800FEF702FE8E
:103FD0002B7823700134B442F7D16B469B79012BC7
:103FE0001ED00024214B1A78012AD7D001221A7042
:103FF000D4E70021E920FFF72DFEE925012801D9AA
:104000000824A83D00212800FFF724FE0028F9D14C
:10401000802150308900FFF71DFE0028E2D0E0E744
:104020006B46DB79AA2BDCD18021E920C905FFF79B
:1040300011FE0028F8D100217A30FFF70BFE00288E
:10404000CFD12800FEF7C6FD2B783B700137B74271
:10405000F7D16B461C796406E31704241C40023434
:10406000C0E7C04600F0FF1F01F0FF1F02F0FF1F76
:10407000F0B54F464646D6460D00C0B59046071EE1
:1040800057D00678222E26D03300093B042B52D974
:1040900020233000984354D02B4B002499462023F2
:1040A0009A460AE0287000253E5D3300093B042B48
:1040B0002FD93000534698432CD03100484610F099
:1040C00019FD002825D10134002DEDD00C2CE9D8A4
:1040D0002E700135E8E7411C4378213E0024002082
:1040E0000BE0002B2BD00A000134002D03D00C2C48
:1040F0000CD82B7001355378511C222BF1D14B7801
:104100004A1C0136222BEFD0002004E02870002545
:10411000F1E700200026002D01D000232B7043463C
:10412000002B01D0A4191C601CBC90469946A246E5
:10413000F0BD1B20F8E7002000260024EDE71B203F
:10414000E9E700260024E8E780670100F8B5474664
:10415000CE460C0080B5071E4CD00578222D26D007
:104160002B00093B042B47D920232800984338D043
:10417000234B00269846202399460AE0207000240D
:10418000BD5D2B00093B042B28D928004B469843E2
:1041900025D02900404610F0ADFC00281ED1013684
:1041A000002CEDD00C2EE9D825700134E8E7013061
:1041B0007B78002200250BE0002B1FD0010001328C
:1041C000002C03D00C2A12D8237001344B78481CE1
:1041D000222BF1D14378411C222BF0D00020002C5F
:1041E00001D0002323700CBC90469946F8BD257081
:1041F0000024EBE71B20F6E70020F2E71B20EEE7A8
:104200008067010070B5140006000D000A481168AF
:104210000DF0ECFB300021680DF0E8FB2168074849
:104220000DF0E4FB280021680DF0E0FB2168044854
:104230000DF0DCFB70BDC046C0620100E46201000D
:10424000D867010030B583B003006C46EFF31080EF
:1042500072B6E071224C20780130C0B22070012883
:1042600003D16846C5791F4805700125DA8001220F
:1042700018785A7005431D7010251B4A9960917873
:10428000294391709178890625D504259178294391
:104290009170820614D507221043012218701B79F1
:1042A0001343114A13712378013BDBB22370002BB7
:1042B00003D10C4B187880F31088002003B030BD78
:1042C000C206F0D5062290430122104318705A7995
:1042D000054B1A71E7E72025917829439170D8E7BB
:1042E00021F1FF1F22F1FF1F00600640F8B5170003
:1042F0000122274C0E0065682B781A4035D13A21EF
:10430000297122398B4308310B432B7062706B7813
:10431000012B34D0AB89002B35D1010000230122C1
:1043200028000EF04BFFC0B200281DD16378002B8F
:10433000FCD0002360682370027808331A4224D12D
:1043400001210A404178012911D0002A15D1C288E3
:10435000002A12D13A003100FFF774FFC0B20028E2
:1043600002D12378002BFCD0F8BD1B20FCE72025D0
:104370000849C97829400A43E9D0D8B2F4E7054B87
:10438000DB780B42C6D00820EEE70923D8B2EBE772
:10439000ACF0FF1F0060064070B5134D0378134C5E
:1043A0002B700B7860686B70002363704378012B6F
:1043B00011D00378DB070CD48389002B09D10123AA
:1043C000022229000EF0FAFE002802D16378002BA9
:1043D000FCD0002070BD064AD2789206F9D402784B
:1043E0001A42E9D0F5E7C04608140020ACF0FF1FE0
:1043F0000060064010B5048A82B00200002C22D171
:1044000012496B46EFF3108072B6D8710B78013306
:10441000DBB20B70012B03D16B46D8790C4B1870B3
:104420000C4BD36001231382002313810B78013BD3
:10443000DBB20B70002B03D1054B187880F310888A
:10444000200002B010BD0824FAE7C04621F1FF1F8A
:1044500022F1FF1F9CF0FF1FF8B53C4B04000F003A
:1044600099424FD0002906DB57D13023461C0370F8
:1044700000233370F8BD4D422DB20A212800FCF70D
:10448000A9F93031217028000A21FCF7BDF800B2EB
:10449000661C002843D00A21FCF79CF9303161707A
:1044A00028006421FCF7B0F800B2A61C002840D018
:1044B0000A21FCF78FF93031A170FA212800890018
:1044C000FCF7A2F800B2E61C002839D00A21FCF75C
:1044D00081F91F4B30319C46E17065441D49ABB2F8
:1044E000261D022504228B422DD90023013AA21851
:1044F0001078E15CE05401331170D9B2013AA9425D
:10450000F6D3B5E72D23037006334370013B837068
:104510000533C37000230371ACE70D00ADE7002F36
:10452000A6DA00239A1C2D2355083370EDB2A61885
:10453000DBE701230222002FF4DB5508EDB2D4E7BC
:1045400002230322F7E7002FF7DACEE70080FFFF10
:104550000F2700001E4E0000F0B5C64600B50C0047
:1045600082B000295AD003789846002B54D0233BC0
:104570005A4253416A46C51800230026D371284F7A
:10458000284B69462200073128009847002800D0B0
:104590001B2604373B68002BF3D16B46DB79002BDD
:1045A00001D0002E24D0A168002920D01E480DF093
:1045B00029F9A16800291AD028000DF023F9A16873
:1045C000002914D019480DF01DF9A16800290ED05A
:1045D00017480DF017F9A168002908D015480DF00B
:1045E00011F9A168002902D013480DF00BF91B2620
:1045F0004346232B0BD06168002908D00B480DF0EF
:1046000001F96168002902D00C480DF0FBF8300078
:1046100002B004BC9046F0BD0026F8E71B26F6E782
:10462000AC6201001D180100FC610100D8670100A7
:104630001C62010028620100306201005862010022
:1046400030B5048B83B00300002C2DD16A46EFF304
:10465000108072B6D071154802780132D2B2027061
:10466000012A03D16A46D579114A157001221A83AD
:104670000022596101215A821A880A4380211A8036
:104680000C4BDA780A43DA709A79D2B29A710378CD
:10469000013BDBB20370002B03D1054B187880F38C
:1046A0001088200003B030BD0824FAE721F1FF1F75
:1046B00022F1FF1F00A00640F8B5050000780F00AA
:1046C00016000D24002802D109E0002C0DD0013580
:1046D000B0472878013CE4B20028F6D103E020205E
:1046E000B047013CE4B2002CF9D13A20B047202079
:1046F000B047002F05D0002E03D0310038000DF058
:1047000081F8F8BD10B50A000149FFF7D5FF10BDCB
:1047100080670100F8B5050000780F0016001A2424
:10472000002802D109E0002C0DD00135B0472878CF
:10473000013CE4B20028F6D103E02020B047013C60
:10474000E4B2002CF9D13B20B0472020B047002F25
:1047500005D0002E03D0310038000DF053F8F8BD1D
:10476000F8B5802304000F001B06994200D191E0A8
:104770004D42002907DB05D13023461C037000237E
:104780003370F8BD0D000A212800FCF723F8303102
:10479000217028000A21FBF737FF661C002800D192
:1047A0008EE00A21FCF716F8303161702800642190
:1047B000FBF72AFFA61C002800D18CE00A21FCF799
:1047C00009F83031A170FA2128008900FBF71CFF9D
:1047D000E61C002800D181E00A21FBF7FBFF303105
:1047E000E17028004849FBF70FFF261D002878D00C
:1047F0000A21FBF7EFFF3031217128004349FBF715
:1048000003FF661D00286FD00A21FBF7E3FF30315C
:10481000617128003E49FBF7F7FEA61D002866D00F
:104820000A21FBF7D7FF3031A17128003949FBF786
:10483000EBFEE61D00285DD00A21FBF7CBFF3031EF
:10484000E17128003449FBF7DFFE0136002854D01F
:104850000A21FBF7BFFF3031217228002F49FBF7F7
:10486000D3FE013600284BD009230A223030607273
:104870000136002F28DB5508EDB20023013AA218BB
:104880001078E15CE05401331170D9B2013A8D42E5
:10489000F6D874E72D23037005334370013B3722AC
:1048A000332183700333C370437143720023027159
:1048B000C17101320331827101728272C37260E789
:1048C000002F00DB5BE700239A1C2D235508337073
:1048D000EDB2A618D1E701230222CAE70223032280
:1048E000C7E703230422C4E704230522C1E7052305
:1048F0000622BEE706230722BBE707230822B8E704
:1049000008230922B5E7C04610270000A086010051
:1049100040420F008096980000E1F50500CA9A3BDE
:1049200043689A684B608A609A685160996003682E
:1049300008610133036070470369416882688A60D7
:1049400051605968814206D0002202611A68013A1A
:104950001A60186870475A60F6E7C046F8B5040058
:10496000284B294D1E6828680F000430FFF7E4FF2C
:10497000631C39D02B6830195860864217D9234BF5
:104980001868296802004C680D1D0832631C01D1AB
:1049900032E01A0053681E68B442FAD28B609D6000
:1049A0000368CA600133556048610360F8BD184B65
:1049B0001C68296822004D680E1D08326B1C01D14D
:1049C0001DE01A0053681F68BD42FAD28B609E60DA
:1049D0002368CA60013356604C6123600D4B1A682E
:1049E0008242E3D91860E1E7002FC3D029680A4862
:1049F0000431FFF795FFD9E702695368CEE72269D2
:104A00005368E3E7A01400205CF3FF1F68F3FF1F67
:104A100060F3FF1F5014002078140020C36870B5A5
:104A2000DC68002C33D0250018352800FFF784FF00
:104A3000184B1B68002B17D0174B5A689168E2611E
:104A4000216291684D6095601A68A36201321A6014
:104A5000124BE26A1B680020DB6A9A4203D90122EA
:104A60000F4B01301A6070BD251D2800FFF764FF51
:104A70000C4AE36A11688B4200D913609800C01891
:104A8000094B800018182900FFF74AFFE0E772B6CB
:104A9000FEE7C046FC130020581400205CF3FF1F03
:104AA000A4140020041400206CF3FF1FF0B5DE46B0
:104AB00057464E464546E0B5504B83B01B68002B29
:104AC00000D089E04E4B1A68013290461A60002AE5
:104AD00022D04C4E33680027434533D94A4B994680
:104AE0004A4B9A4653461B68DA6A93009B184A461B
:104AF0009B00D358012B00D90127454B1B68454B20
:104B00001B68002B00D00127380003B03CBC904646
:104B10009946A246AB46F0BD3F4C23681B68002B6C
:104B200060D13E4B2268196821601A603C4A1368C4
:104B30000133136023681B68002B55D1314E013BB4
:104B40003360C7E7304B344C9946304B00949A465B
:104B5000344B9B46009B1B681B68002B39D0009B85
:104B60001B68DB68DD686B68984544D32B1D180013
:104B70000193FFF7E1FEAB6A002B03D02800183049
:104B8000FFF7DAFE5B46EA6A1B689A4201D95B4688
:104B90001A60CC4693009B189B009C446146496870
:104BA0008868A960E8608C680198606088606146E8
:104BB000696149464846C9580131C15053461B688E
:104BC000DB6A9A42C6D3009B01271B681B68002B37
:104BD000C5D1013B336085E70D4A002713680133D7
:104BE00013608CE772B6FEE72368064EDB68DB686D
:104BF0005B6833606EE7336074E7C046FC130020E7
:104C0000A0140020501400206CF3FF1F5CF3FF1F62
:104C1000F8130020A414002060F3FF1F68F3FF1FA7
:104C20005414002004140020F8B5DE4657464E46C2
:104C30004546E0B5FEF768FC434B1A68013A1A6036
:104C40001B68002B66D1414B1B68002B62D0404B88
:104C50001B68002B00D174E03E4B3F4E98463F4B03
:104C600099463F4B9A4601239B46394BDB68DC68EB
:104C70002000251D1830FFF75FFE2800FFF75CFEBF
:104C80004346E26A1B689A4201D943461A60930080
:104C90009B189B00F01841688F68A160E7608F68DF
:104CA0007D608D60F15860610131F1504B461B68A9
:104CB000DB6A9A4238D353465A461A60244B1B6823
:104CC000002BD2D1274B1A681268002A35D01B68F6
:104CD000DB68DB685A68244B1A60244E3468002C69
:104CE0000AD00125FFF7E2FE002801D053461D60DF
:104CF000013C002CF6D1346053461B68002B09D0D0
:104D000080221B4B52051A60BFF34F8FBFF36F8F8A
:104D1000012400E00024FEF7EDFB20003CBC90469F
:104D20009946A246AB46F8BD094B1B68002B9CD1A7
:104D30000C4B1A681268002AC9D10B4B013A1A6051
:104D4000CBE7074B9A46C8E7FC130020F01300207E
:104D500058140020041400206CF3FF1F5CF3FF1FA5
:104D6000A414002060F3FF1F50140020F81300204B
:104D700004ED00E0044B10B51B68002B01D172B6A6
:104D8000FEE7FFF751FF10BDFC13002010B500280F
:104D90001DD00F4B0F4A1B681268C01A43681A4295
:104DA00004D00168002903D072B6FEE772B6FEE7B0
:104DB000094993430A68436001320A60074A11684F
:104DC0008C4663441360FEF76DFBFFF7D3FF10BD05
:104DD0000CF0FF1F18140020FC13002044140020C6
:104DE0006A4BF0B557464546DE464E469846684BF8
:104DF000E0B59A46674B684F9B46684B684D9946AD
:104E000083B043461B68002B71D072B63B680133F8
:104E10003B60BFF34F8FBFF36F8F624BDB68DC6883
:104E20006369A168E26858688A605160211D884200
:104E30005BD0002262611A68013A1A601B685A4B03
:104E4000594A1B68013B1360434642461B68013BBD
:104E500013603B68013B3B60002B00D162B6236BC3
:104E6000002B35D059465246096812685B1A5868BB
:104E7000024204D01968002903D072B6FEE772B668
:104E8000FEE790432A68494901322A60474A586040
:104E9000126812180A60464A00E00A0011688B4244
:104EA000FBD85668B44694440196634503D1B44692
:104EB00013006044506058681E18B14249D0196010
:104EC0009A4200D013602B68002B40D0FFF7ACFE55
:104ED0005B4652461B681268E41A63681A4213D094
:104EE0002168002912D072B6FEE75A60A1E7314B63
:104EF0001B68012B85D980222F4B52051A60BFF306
:104F00004F8FBFF36F8F7CE772B6FEE793432A683B
:104F1000264901322A60254A63601268D2180A6065
:104F2000234A00E00A0011688C42FBD8506816182A
:104F3000B44227D06368E018814218D02160A242B1
:104F400000D014602B68002B0ED172B6FEE772B64B
:104F5000FEE74E463668B142B1D04E680968B446A5
:104F6000604458601960ABE7FFF75EFE49E74846CA
:104F700000688142E2D048688446634463600B68FD
:104F80002360DCE71B1853601400D3E7F413002000
:104F9000181400200CF0FF1F04F0FF1F64F3FF1F24
:104FA000FC1300208C140020F01300204414002077
:104FB000701400206CF3FF1F04ED00E010B572B612
:104FC000FFF774FD002807D08022044B52051A60B9
:104FD000BFF34F8FBFF36F8F62B610BD04ED00E0DB
:104FE000F0B5DE464E4657464546E0B583B006006E
:104FF000FEF78AFA4523F45C64B2002C64DD736A20
:10500000002B61D0336BDD68002D4AD06D4B9A4682
:105010006D4B99466D4B98466D4B9B464B460193A5
:1050200018239946A9444846FFF786FC53461B6857
:10503000002B38D12B1D18009946FFF77DFC5B46ED
:10504000EA6A1B689A4201D95B461A60614993007B
:105050008C469B189B009C4461464F464968886873
:10506000A960E860886847608F6061466961594956
:105070005848C9580131C150019B1B68DB6A9342F3
:1050800003D20122544B1A601A60013CE3B25CB2B5
:10509000002B19D0736A002B16D0336BDD68002DFE
:1050A000BED172B6FEE7434649465B689A68EB613B
:1050B0002A629A685160996043464246AB621B6817
:1050C00001331360EA6AD7E74523FF22F254FEF763
:1050D00011FAFEF719FA4423F45C64B2002C64DD83
:1050E0003369002B61D0F369DD68002D47D0354B63
:1050F0009A46354B9946354B9846364B9B464B4620
:10510000019318239946A9444846FFF715FC5346D6
:105110001B68002B35D12B1D18009946FFF70CFC9E
:105120002B4BEA6A1B689A423CD8DC4693009B18DA
:105130009B009C4461464F4649688868A960E860C6
:10514000886847608F606146696159465846C9580A
:105150000131C150019B1B68DB6A934203D20122DB
:105160001D4B1A601A60013CE3B25CB2002B1CD0EC
:105170003369002B19D0F369DD68002DC1D172B6F7
:10518000FEE7434649465B689A68EB612A629A6883
:105190005160996043464246AB621B68013313601D
:1051A000EA6AD7E70A4B1A60BFE74423FF22F254AA
:1051B000FEF7A0F903B03CBC90469946A246AB4628
:1051C000F0BDC046FC1300205CF3FF1F5814002004
:1051D000041400206CF3FF1FA4140020F8B5041E73
:1051E00012D0036C002B0DD13C4B1B68002B0DD152
:1051F000FEF78AF9A36BE26B93420AD3FEF77AF9C2
:105200000020F8BD72B6FEE772B6FEE7344B1B68AD
:10521000EEE7226CA56B002A10D12268002A24D068
:105220000135A563636A002B1BD020002430FFF7F3
:10523000F5FB002815D0FDF743FC12E00021606863
:105240000FF02EFC226C63689446A268634463608E
:1052500001359342E5D32368A5636360636A002B3D
:10526000E3D1FEF747F90120CBE7A668002ED7D09F
:105270001C4B1B689E4201D072B6FEE7336D002BBB
:1052800001D172B6FEE7F16AF06C013B336501357E
:10529000814201D0002B05D0A563636AA260002B78
:1052A000DFD0C2E7371D3800FFF746FB0622F36C5C
:1052B000D21AB2610C4AF36211688B4200D91360B2
:1052C0001420434309483900C018FFF729FB002385
:1052D000A563A360636A002BADD0A6E76C14002021
:1052E000FC1300205CF3FF1F041400206CF3FF1F6D
:1052F0003C4B70B51B68002B03D001223A4B1A605F
:1053000070BD394A39491360394B3A481A683A4BEB
:105310001A600B68934204D20468A56DEB1A9B18BF
:10532000A3650A600268036812681B6B9A4240D941
:10533000324D33492A6893009C18A4000C59002C64
:105340003ED1002A33D0531E9C00E418A4000C590F
:10535000002C33D1002B2AD0931E9C00E418A4000B
:105360000C59002C2AD1002B21D0D31E9C00E4180C
:10537000A4000C59002C21D1002B18D0131F9C0025
:10538000E418A4000C59002C18D1002B0FD0531F87
:105390009C00E418A4000C59002C0FD1002B06D05F
:1053A000931F9A00D21892008A58002A06D172B62A
:1053B000FEE70368036872B600BEFEE71A009B00B2
:1053C0009B189B00CE18746808336468C918746011
:1053D0008C4203D0E36803602A6091E764687460DC
:1053E000F8E7C046FC130020A4140020E8130020B6
:1053F000A01400205CF3FF1FEC1300200414002015
:105400006CF3FF1F10B50F4C2368002B01D072B650
:10541000FEE72368002101332360FFF79FFA23682A
:10542000002B01D172B6FEE7FFF7FEFB002807D183
:105430008022054B52051A60BFF34F8FBFF36F8F69
:1054400010BDC046FC13002004ED00E0F0B54E4650
:10545000DE4657464546E0B5694A85B0944602AAFD
:1054600005320092FF22019190466649664A8023E8
:105470008946834600261100644F9B00454602A8DA
:105480008571604645693E702878002857D0288A83
:1054900000282CD102ACEFF3108072B6E0710878CE
:1054A0000130C0B20870012802D1E079554C20705B
:1054B00000982E81E86001202882554DE87840B29E
:1054C000002800DA68798024514D2878204328701C
:1054D00008780138C0B20870002803D1494C207800
:1054E00080F31088604645692878002827D0288BEB
:1054F000002824D102ACEFF3108072B6E07110786E
:105500000130C0B21070012802D1E0793D4C20700A
:105510002024A24602A80630686101205446288350
:105520006E823B4D28782043287010780138C0B235
:105530001070002803D14C46207880F3108838780A
:105540000028FCD000980078FF283AD1013B9BB29C
:10555000002B93D1FA204000FEF74AFA8046FF283C
:1055600020D002AB2B4FDD1D8600009C2000FDF7F4
:1055700031FB2378FF2B1FD1EFF3108072B6287018
:10558000287880F31088F259F5339A4234D1EFF33A
:10559000108072B62870287880F31088F359002B99
:1055A000E3D109E0009C2000FDF714FB2378FF2BDA
:1055B00002D10120FFF726FF4046FDF701FC009BCA
:1055C00018780023FE280FD15C46019BE518ADB288
:1055D00020000134FDF7FEFAA3B29D42F8D1FDF799
:1055E00031FBFDF72FFB0123180005B03CBC9046B2
:1055F0009946A246AB46F0BD0120FFF703FFC6E780
:10560000B8F0FF1F22F1FF1F21F1FF1F20F1FF1F44
:105610000070074024F1FF1FF0B5DE4657464E46A6
:105620004546E0B585B002AA06320192684A802359
:105630009446684A8346904602AA541DFF2291462A
:10564000654A002711009B004846019D287060466E
:105650000770404646693078002855D0308A0028C7
:105660002BD102ADEFF3108072B6E87108780130EB
:10567000C0B20870012802D1E879584D2870012085
:10568000F46030823781564EF07840B2002800DA5C
:1056900070798025524E3078284330700878013870
:1056A000C0B20870002803D14C4D287880F31088D0
:1056B000404646693078002826D0308B002823D118
:1056C00002ADEFF3108072B6E87110780130C0B20D
:1056D0001070012802D1E879404D28702025AA4693
:1056E0000198554670610120778230833C4E3078B6
:1056F0002843307010780138C0B21070002803D1F0
:10570000364D287880F31088604600780028FBD05A
:105710002078FF283AD1013B9BB2002B94D1FA208C
:105720004000FEF765F98146FF2822D002ABDD1D5F
:105730002C4B870098462000FDF74CFA2378FF2B6E
:1057400020D1EFF3108072B62870287880F310888B
:105750004246BA58F5339A4235D1EFF3108072B60B
:105760002870287880F310884346FB58002BE2D13C
:1057700008E02000FDF72EFA2378FF2B02D101204C
:10578000FFF740FE4846FDF71BFB20780023FE286C
:1057900011D1802292005B46944663445D461C0012
:1057A00028000135FDF716FAA542F9D1FDF74AFAAE
:1057B000FDF748FA0123180005B03CBC9046994615
:1057C000A246AB46F0BD0120FFF71CFEC5E7C04670
:1057D00020F1FF1FB8F0FF1F21F1FF1F22F1FF1F73
:1057E0000070074024F1FF1FF0B54546DE465746DE
:1057F0004E46E0B5040083B00D00002804D0036CD1
:10580000002B03D072B6FEE772B6FEE7B44B1B68FE
:10581000002B41D100239946B24B00269B46B24B48
:105820009A46FDF771FEA36B002B00D0A7E0002D78
:1058300000D12BE14B46AC4F002B26D0FDF75AFE92
:10584000AA4A136801331360FDF75EFE4422A35C8D
:105850005BB2013301D10023A3544522A35C5BB2A8
:10586000013301D10023A354FDF744FEFDF74CFEA4
:105870003B686A1C2ED09B4A00981168884213D05E
:10588000434511D3FDF736FE15E05B4657461B68CE
:1058900000933B689846D1E7944B1B68002BB9D026
:1058A0000029B7D072B6FEE74146591AA9422DD356
:1058B000FDF720FE00252000FFF792FBFFF75AFAC4
:1058C000FDF722FEA36B002B13D0FDF713FE01237F
:1058D0009946A6E7FDF70EFEFDF716FEA36B002B1B
:1058E0001DD0FDF707FE2000FFF77AFBFFF742FA15
:1058F000EDE7FDF7FFFD002E00D08EE0300003B095
:105900003CBC90469946A246AB46F0BDED1A1368E2
:10591000454400933B689846FDF7ECFDDCE7FDF756
:10592000E9FD2368002B4DD0714F24233A689C4633
:1059300010009769A44418307B1C40D02300914686
:105940002C3300E00B0059680A689742FAD24A46A5
:10595000D16188601362586063469362636A012173
:10596000013363622800FEF7F9FF2000FFF738FBE0
:10597000FFF700FA0028AAD1FDF7A2F8A7E7013B3C
:10598000A3632368002B0FD02369002B03D1FDF7FD
:10599000B1FD0126B2E720001030FFF73FF80028E4
:1059A000F5D0FDF78DF8F2E7514B1A68002A03D0C5
:1059B00019680A6D01320A651B68A360E4E7636B2E
:1059C0005968C5E7FDF7A0FDA668002E43D0484FF3
:1059D000F26A3B68DB6A9A4218D2B369002B04DB97
:1059E0003B68D96A06235B1AB361424993008C462F
:1059F0009B189B007269634401919A422ED03B68C8
:105A0000DB6AF3620126FDF775FD8EE73B68F66CF5
:105A1000DB6A9E42B6417642F5E7FDF775FD636AA3
:105A2000002B03D0236B1A6806239B1AA468002C52
:105A30000DD0206D002801D172B6FEE7E26C9A42CB
:105A400000D21A00E16A914201D0012822D0FDF76C
:105A500051FD002652E70026254FD4E7331D1800DC
:105A60009946FEF769FF3B68234ADB6A1168F362D7
:105A70008B4200D913609800C018019B80009C469F
:105A800049466044FEF74CFF0126BCE7002EDED0FD
:105A900072B6FEE7164B1B689C421FD0A369E262F8
:105AA000002B02DB06239A1AA2618B00114D5B18B2
:105AB0009B006269EB189A42C9D1261D3000FEF79F
:105AC0003BFF0D4AE36A11688B4200D91360142032
:105AD000584331002818FEF723FFB8E772B6FEE7F7
:105AE0006C14002054140020A0140020FC1300208B
:105AF0005CF3FF1F6CF3FF1F04140020F8B54E4643
:105B0000DE46574645464649E0B50A68454E0132ED
:105B10000A6032680300002A4AD04349434D0E68A8
:105B2000434944488846444989461E4201D1002BD6
:105B300004D1FFF71FF972B600BEFEE701685B18DB
:105B40000721194256D1002BF3D049460F689F42D6
:105B5000EFD32C68AB4605E02568AC46002D04D099
:105B6000A346644661689942F6D39442E1D05D460B
:105B70000268924622682A600268CD1A5200954255
:105B800042D84B467F1A1F6043461B689F4201D292
:105B900043461F605346E51800230E4366602360AA
:105BA000FFF7E8F8002DC6D06B0726D072B6FEE7E7
:105BB00080220720214992018A18084201D007312A
:105BC00081431C4800240768184DD21B0727BA439D
:105BD000326080266C60296054601460541A14C1CD
:105BE000134936060C60884613490C6089460E49F5
:105BF0000E609AE78B430833A5E728003CBC90462B
:105C00009946A246AB46F8BDE018420701D072B6ED
:105C1000FEE745606360FDF745FC6168B1E7C0469B
:105C2000FC13002064F3FF1F1814002070140020E0
:105C30004C1400200CF0FF1F44140020E8F3FF1F59
:105C4000F8B5CE464746950080B5804628000E0040
:105C50001F00FFF753FF8146002800D1A2E0642017
:105C6000FFF74CFF041E00D1ABE04B462A00036354
:105C7000A52148460EF040FE236B043D9C460723B9
:105C800065449D43002334222564F356A354002B1E
:105C900039D00123F3560132A354002B33D0022311
:105CA000F3560132A354002B2DD00323F3560132B7
:105CB000A354002B27D00423F3560132A354002B06
:105CC00021D00523F3560132A354002B1BD0062309
:105CD000F3560132A354002B15D00723F35601329B
:105CE000A354002B0FD00823F3560132A354002BEA
:105CF00009D00923F3560132A354002B03D00A2202
:105D00003E23B256E25400233F228021A354393A65
:105D1000A2615A32E362E36423656361A362246192
:105D200064626365A365E3654904A3542A1F116097
:105D30004146043A1160043A1360403D143A13603E
:105D400025609F4200D03C60FDF7DEFB484A494E8B
:105D50001368013313603368002B38D0464D2B682D
:105D6000002B26D04548E26A45490B6801330B6099
:105D70006364444B19688A4200D91A601423534360
:105D8000211DC018FEF7CCFDFDF7B4FB2B680125E3
:105D9000002B09D03368DA6AE36A9A4204D2FCF72E
:105DA0008FFE01E001256D4228000CBC904699460B
:105DB000F8BD3368E26ADB6A30489342D4D8346075
:105DC000D2E701254846FEF7E1FF6D42ECE734607B
:105DD00012682A48012A02D0274DE26AC4E714213A
:105DE000012702008C461D007F42110008315160DE
:105DF000D1601161614659430133976045501432B7
:105E0000062BF2D1204A130008335360D36013618C
:105E10001E4B1560190008311D605960D960196169
:105E200098469F6008239C46194997608C446346B6
